{
  "address": "0x5FbDB2315678afecb367f032d93F642f64180aa3",
  "abi": [
    {
      "inputs": [
        {
          "internalType": "address",
          "name": "_feesAccount",
          "type": "address"
        },
        {
          "internalType": "uint256",
          "name": "_feePercent",
          "type": "uint256"
        }
      ],
      "stateMutability": "nonpayable",
      "type": "constructor"
    },
    {
      "anonymous": false,
      "inputs": [
        {
          "indexed": false,
          "internalType": "uint256",
          "name": "id",
          "type": "uint256"
        },
        {
          "indexed": false,
          "internalType": "address",
          "name": "tokenGive",
          "type": "address"
        },
        {
          "indexed": false,
          "internalType": "uint256",
          "name": "amountGive",
          "type": "uint256"
        },
        {
          "indexed": false,
          "internalType": "address",
          "name": "tokenTake",
          "type": "address"
        },
        {
          "indexed": false,
          "internalType": "uint256",
          "name": "amountTake",
          "type": "uint256"
        },
        {
          "indexed": false,
          "internalType": "address",
          "name": "user",
          "type": "address"
        },
        {
          "indexed": false,
          "internalType": "uint256",
          "name": "timestamps",
          "type": "uint256"
        }
      ],
      "name": "Cancel",
      "type": "event"
    },
    {
      "anonymous": false,
      "inputs": [
        {
          "indexed": false,
          "internalType": "address",
          "name": "_tokenAddress",
          "type": "address"
        },
        {
          "indexed": false,
          "internalType": "address",
          "name": "sender",
          "type": "address"
        },
        {
          "indexed": false,
          "internalType": "uint256",
          "name": "amountDeposited",
          "type": "uint256"
        },
        {
          "indexed": false,
          "internalType": "uint256",
          "name": "balance",
          "type": "uint256"
        }
      ],
      "name": "Deposit",
      "type": "event"
    },
    {
      "anonymous": false,
      "inputs": [
        {
          "indexed": false,
          "internalType": "uint256",
          "name": "id",
          "type": "uint256"
        },
        {
          "indexed": false,
          "internalType": "address",
          "name": "tokenGive",
          "type": "address"
        },
        {
          "indexed": false,
          "internalType": "uint256",
          "name": "amountGive",
          "type": "uint256"
        },
        {
          "indexed": false,
          "internalType": "address",
          "name": "tokenTake",
          "type": "address"
        },
        {
          "indexed": false,
          "internalType": "uint256",
          "name": "amountTake",
          "type": "uint256"
        },
        {
          "indexed": false,
          "internalType": "address",
          "name": "user",
          "type": "address"
        },
        {
          "indexed": false,
          "internalType": "uint256",
          "name": "timestamps",
          "type": "uint256"
        }
      ],
      "name": "Order",
      "type": "event"
    },
    {
      "anonymous": false,
      "inputs": [
        {
          "indexed": false,
          "internalType": "uint256",
          "name": "id",
          "type": "uint256"
        },
        {
          "indexed": false,
          "internalType": "address",
          "name": "tokenGive",
          "type": "address"
        },
        {
          "indexed": false,
          "internalType": "uint256",
          "name": "amountGive",
          "type": "uint256"
        },
        {
          "indexed": false,
          "internalType": "address",
          "name": "tokenTake",
          "type": "address"
        },
        {
          "indexed": false,
          "internalType": "uint256",
          "name": "amountTake",
          "type": "uint256"
        },
        {
          "indexed": false,
          "internalType": "address",
          "name": "user",
          "type": "address"
        },
        {
          "indexed": false,
          "internalType": "address",
          "name": "userFill",
          "type": "address"
        },
        {
          "indexed": false,
          "internalType": "uint256",
          "name": "timestamps",
          "type": "uint256"
        }
      ],
      "name": "Trade",
      "type": "event"
    },
    {
      "anonymous": false,
      "inputs": [
        {
          "indexed": false,
          "internalType": "address",
          "name": "_tokenAddress",
          "type": "address"
        },
        {
          "indexed": false,
          "internalType": "address",
          "name": "sender",
          "type": "address"
        },
        {
          "indexed": false,
          "internalType": "uint256",
          "name": "amountDeposited",
          "type": "uint256"
        },
        {
          "indexed": false,
          "internalType": "uint256",
          "name": "balance",
          "type": "uint256"
        }
      ],
      "name": "Withdrawal",
      "type": "event"
    },
    {
      "inputs": [
        {
          "internalType": "address",
          "name": "_token",
          "type": "address"
        },
        {
          "internalType": "address",
          "name": "_user",
          "type": "address"
        }
      ],
      "name": "balance",
      "outputs": [
        {
          "internalType": "uint256",
          "name": "",
          "type": "uint256"
        }
      ],
      "stateMutability": "view",
      "type": "function"
    },
    {
      "inputs": [
        {
          "internalType": "uint256",
          "name": "_id",
          "type": "uint256"
        }
      ],
      "name": "cancelOrder",
      "outputs": [],
      "stateMutability": "nonpayable",
      "type": "function"
    },
    {
      "inputs": [],
      "name": "depositEther",
      "outputs": [],
      "stateMutability": "payable",
      "type": "function"
    },
    {
      "inputs": [
        {
          "internalType": "address",
          "name": "_token",
          "type": "address"
        },
        {
          "internalType": "uint256",
          "name": "_amount",
          "type": "uint256"
        }
      ],
      "name": "depositToken",
      "outputs": [],
      "stateMutability": "nonpayable",
      "type": "function"
    },
    {
      "inputs": [],
      "name": "feePercent",
      "outputs": [
        {
          "internalType": "uint256",
          "name": "",
          "type": "uint256"
        }
      ],
      "stateMutability": "view",
      "type": "function"
    },
    {
      "inputs": [],
      "name": "feesAccount",
      "outputs": [
        {
          "internalType": "address",
          "name": "",
          "type": "address"
        }
      ],
      "stateMutability": "view",
      "type": "function"
    },
    {
      "inputs": [
        {
          "internalType": "uint256",
          "name": "_id",
          "type": "uint256"
        }
      ],
      "name": "fillOrder",
      "outputs": [],
      "stateMutability": "nonpayable",
      "type": "function"
    },
    {
      "inputs": [
        {
          "internalType": "address",
          "name": "_tokenget",
          "type": "address"
        },
        {
          "internalType": "address",
          "name": "_tokengive",
          "type": "address"
        },
        {
          "internalType": "uint256",
          "name": "_amountget",
          "type": "uint256"
        },
        {
          "internalType": "uint256",
          "name": "_amountgive",
          "type": "uint256"
        }
      ],
      "name": "makeOrder",
      "outputs": [],
      "stateMutability": "nonpayable",
      "type": "function"
    },
    {
      "inputs": [
        {
          "internalType": "uint256",
          "name": "",
          "type": "uint256"
        }
      ],
      "name": "order",
      "outputs": [
        {
          "internalType": "uint256",
          "name": "id",
          "type": "uint256"
        },
        {
          "internalType": "address",
          "name": "tokenGive",
          "type": "address"
        },
        {
          "internalType": "uint256",
          "name": "amountGive",
          "type": "uint256"
        },
        {
          "internalType": "address",
          "name": "tokenTake",
          "type": "address"
        },
        {
          "internalType": "uint256",
          "name": "amountTake",
          "type": "uint256"
        },
        {
          "internalType": "address",
          "name": "user",
          "type": "address"
        },
        {
          "internalType": "uint256",
          "name": "timestamps",
          "type": "uint256"
        }
      ],
      "stateMutability": "view",
      "type": "function"
    },
    {
      "inputs": [
        {
          "internalType": "uint256",
          "name": "",
          "type": "uint256"
        }
      ],
      "name": "orderCancelled",
      "outputs": [
        {
          "internalType": "bool",
          "name": "",
          "type": "bool"
        }
      ],
      "stateMutability": "view",
      "type": "function"
    },
    {
      "inputs": [],
      "name": "orderCount",
      "outputs": [
        {
          "internalType": "uint256",
          "name": "",
          "type": "uint256"
        }
      ],
      "stateMutability": "view",
      "type": "function"
    },
    {
      "inputs": [
        {
          "internalType": "uint256",
          "name": "",
          "type": "uint256"
        }
      ],
      "name": "orderfilled",
      "outputs": [
        {
          "internalType": "bool",
          "name": "",
          "type": "bool"
        }
      ],
      "stateMutability": "view",
      "type": "function"
    },
    {
      "inputs": [
        {
          "internalType": "address",
          "name": "",
          "type": "address"
        },
        {
          "internalType": "address",
          "name": "",
          "type": "address"
        }
      ],
      "name": "tokens",
      "outputs": [
        {
          "internalType": "uint256",
          "name": "",
          "type": "uint256"
        }
      ],
      "stateMutability": "view",
      "type": "function"
    },
    {
      "inputs": [
        {
          "internalType": "uint256",
          "name": "_amount",
          "type": "uint256"
        }
      ],
      "name": "withdrawEther",
      "outputs": [],
      "stateMutability": "payable",
      "type": "function"
    },
    {
      "inputs": [
        {
          "internalType": "address",
          "name": "_token",
          "type": "address"
        },
        {
          "internalType": "uint256",
          "name": "_amount",
          "type": "uint256"
        }
      ],
      "name": "withdrawToken",
      "outputs": [],
      "stateMutability": "nonpayable",
      "type": "function"
    }
  ],
  "transactionHash": "0x4e9d00ef524c47320649ba059d9c292d9a0e76824e5728759ba686942b5d10ab",
  "args": [
    "0x9DFc87276e0abcea0BF09ED88d7aE6AB9C42a7F8",
    2
  ],
  "numDeployments": 1,
  "solcInputHash": "2105d67b14c627b468c7ad2a01394d1e",
  "bytecode": "0x60806040523480156200001157600080fd5b5060405162001fdd38038062001fdd8339818101604052810190620000379190620000b4565b816000806101000a81548173ffffffffffffffffffffffffffffffffffffffff021916908373ffffffffffffffffffffffffffffffffffffffff16021790555080600181905550505062000167565b600081519050620000978162000133565b92915050565b600081519050620000ae816200014d565b92915050565b60008060408385031215620000c857600080fd5b6000620000d88582860162000086565b9250506020620000eb858286016200009d565b9150509250929050565b6000620001028262000109565b9050919050565b600073ffffffffffffffffffffffffffffffffffffffff82169050919050565b6000819050919050565b6200013e81620000f5565b81146200014a57600080fd5b50565b620001588162000129565b81146200016457600080fd5b50565b611e6680620001776000396000f3fe6080604052600436106100e85760003560e01c806367b830ad1161008a578063b203bb9911610059578063b203bb99146102b8578063cc234453146102f5578063e68fb20714610332578063e9c189661461035b576100e8565b806367b830ad146102315780637fd6f15c1461025a57806398ea5fca146102855780639e281a981461028f576100e8565b8063338b5dea116100c6578063338b5dea146101865780633bed33ce146101af578063508493bc146101cb578063514fcac714610208576100e8565b806321603f43146100ed578063235a6544146101305780632453ffa81461015b575b600080fd5b3480156100f957600080fd5b50610114600480360381019061010f91906118a2565b610398565b6040516101279796959493929190611b35565b60405180910390f35b34801561013c57600080fd5b5061014561043a565b6040516101529190611961565b60405180910390f35b34801561016757600080fd5b5061017061045e565b60405161017d9190611a9c565b60405180910390f35b34801561019257600080fd5b506101ad60048036038101906101a8919061183d565b610464565b005b6101c960048036038101906101c491906118a2565b610705565b005b3480156101d757600080fd5b506101f260048036038101906101ed919061179e565b61095b565b6040516101ff9190611a9c565b60405180910390f35b34801561021457600080fd5b5061022f600480360381019061022a91906118a2565b610980565b005b34801561023d57600080fd5b50610258600480360381019061025391906118a2565b610b36565b005b34801561026657600080fd5b5061026f610c78565b60405161027c9190611a9c565b60405180910390f35b61028d610c7e565b005b34801561029b57600080fd5b506102b660048036038101906102b1919061183d565b610e4c565b005b3480156102c457600080fd5b506102df60048036038101906102da919061179e565b61112b565b6040516102ec9190611a9c565b60405180910390f35b34801561030157600080fd5b5061031c600480360381019061031791906118a2565b6111b2565b6040516103299190611a21565b60405180910390f35b34801561033e57600080fd5b50610359600480360381019061035491906117da565b6111d2565b005b34801561036757600080fd5b50610382600480360381019061037d91906118a2565b6113c8565b60405161038f9190611a21565b60405180910390f35b60036020528060005260406000206000915090508060000154908060010160009054906101000a900473ffffffffffffffffffffffffffffffffffffffff16908060020154908060030160009054906101000a900473ffffffffffffffffffffffffffffffffffffffff16908060040154908060050160009054906101000a900473ffffffffffffffffffffffffffffffffffffffff16908060060154905087565b60008054906101000a900473ffffffffffffffffffffffffffffffffffffffff1681565b60065481565b600073ffffffffffffffffffffffffffffffffffffffff168273ffffffffffffffffffffffffffffffffffffffff16141561049e57600080fd5b8173ffffffffffffffffffffffffffffffffffffffff166323b872dd3330846040518463ffffffff1660e01b81526004016104db9392919061197c565b602060405180830381600087803b1580156104f557600080fd5b505af1158015610509573d6000803e3d6000fd5b505050506040513d601f19601f8201168201806040525081019061052d9190611879565b61053657600080fd5b80600260008473ffffffffffffffffffffffffffffffffffffffff1673ffffffffffffffffffffffffffffffffffffffff16815260200190815260200160002060003373ffffffffffffffffffffffffffffffffffffffff1673ffffffffffffffffffffffffffffffffffffffff16815260200190815260200160002060008282546105c29190611bb5565b925050819055600260008473ffffffffffffffffffffffffffffffffffffffff1673ffffffffffffffffffffffffffffffffffffffff16815260200190815260200160002060003373ffffffffffffffffffffffffffffffffffffffff1673ffffffffffffffffffffffffffffffffffffffff168152602001908152602001600020819055507fdcbc1c05240f31ff3ad067ef1ee35ce4997762752e3a095284754544f4c709d7823383600260008773ffffffffffffffffffffffffffffffffffffffff1673ffffffffffffffffffffffffffffffffffffffff16815260200190815260200160002060003373ffffffffffffffffffffffffffffffffffffffff1673ffffffffffffffffffffffffffffffffffffffff168152602001908152602001600020546040516106f994939291906119b3565b60405180910390a15050565b80600260008073ffffffffffffffffffffffffffffffffffffffff1673ffffffffffffffffffffffffffffffffffffffff16815260200190815260200160002060003373ffffffffffffffffffffffffffffffffffffffff1673ffffffffffffffffffffffffffffffffffffffff1681526020019081526020016000205410156107c4576040517f08c379a00000000000000000000000000000000000000000000000000000000081526004016107bb90611a7c565b60405180910390fd5b3373ffffffffffffffffffffffffffffffffffffffff166108fc829081150290604051600060405180830381858888f1935050505015801561080a573d6000803e3d6000fd5b5080600260008073ffffffffffffffffffffffffffffffffffffffff1673ffffffffffffffffffffffffffffffffffffffff16815260200190815260200160002060003373ffffffffffffffffffffffffffffffffffffffff1673ffffffffffffffffffffffffffffffffffffffff16815260200190815260200160002060008282546108979190611c96565b925050819055507fc2b4a290c20fb28939d29f102514fbffd2b73c059ffba8b78250c94161d5fcc660003383600260008073ffffffffffffffffffffffffffffffffffffffff1673ffffffffffffffffffffffffffffffffffffffff16815260200190815260200160002060003373ffffffffffffffffffffffffffffffffffffffff1673ffffffffffffffffffffffffffffffffffffffff1681526020019081526020016000205460405161095094939291906119b3565b60405180910390a150565b6002602052816000526040600020602052806000526040600020600091509150505481565b60006003600083815260200190815260200160002090503373ffffffffffffffffffffffffffffffffffffffff168160050160009054906101000a900473ffffffffffffffffffffffffffffffffffffffff1673ffffffffffffffffffffffffffffffffffffffff1614610a29576040517f08c379a0000000000000000000000000000000000000000000000000000000008152600401610a2090611a5c565b60405180910390fd5b81816000015414610a6f576040517f08c379a0000000000000000000000000000000000000000000000000000000008152600401610a6690611a3c565b60405180910390fd5b60016004600084815260200190815260200160002060006101000a81548160ff0219169083151502179055507fbc82a6aee2224e144168764201bfd91db5049b5ffc2e3c629387de5d3848724e81600001548260010160009054906101000a900473ffffffffffffffffffffffffffffffffffffffff1683600201548460030160009054906101000a900473ffffffffffffffffffffffffffffffffffffffff1685600401543342604051610b2a9796959493929190611b35565b60405180910390a15050565b600081118015610b4857506006548111155b610b5157600080fd5b6005600082815260200190815260200160002060009054906101000a900460ff1615610b7c57600080fd5b6004600082815260200190815260200160002060009054906101000a900460ff1615610ba757600080fd5b6000600360008381526020019081526020016000209050610c4481600001548260050160009054906101000a900473ffffffffffffffffffffffffffffffffffffffff168360030160009054906101000a900473ffffffffffffffffffffffffffffffffffffffff1684600401548560010160009054906101000a900473ffffffffffffffffffffffffffffffffffffffff1686600201546113e8565b6001600560008360000154815260200190815260200160002060006101000a81548160ff0219169083151502179055505050565b60015481565b34600260008073ffffffffffffffffffffffffffffffffffffffff1673ffffffffffffffffffffffffffffffffffffffff16815260200190815260200160002060003373ffffffffffffffffffffffffffffffffffffffff1673ffffffffffffffffffffffffffffffffffffffff1681526020019081526020016000206000828254610d0a9190611bb5565b925050819055600260008073ffffffffffffffffffffffffffffffffffffffff1673ffffffffffffffffffffffffffffffffffffffff16815260200190815260200160002060003373ffffffffffffffffffffffffffffffffffffffff1673ffffffffffffffffffffffffffffffffffffffff168152602001908152602001600020819055507fdcbc1c05240f31ff3ad067ef1ee35ce4997762752e3a095284754544f4c709d760003334600260008073ffffffffffffffffffffffffffffffffffffffff1673ffffffffffffffffffffffffffffffffffffffff16815260200190815260200160002060003373ffffffffffffffffffffffffffffffffffffffff1673ffffffffffffffffffffffffffffffffffffffff16815260200190815260200160002054604051610e4294939291906119b3565b60405180910390a1565b600073ffffffffffffffffffffffffffffffffffffffff168273ffffffffffffffffffffffffffffffffffffffff161415610e8657600080fd5b80600260008473ffffffffffffffffffffffffffffffffffffffff1673ffffffffffffffffffffffffffffffffffffffff16815260200190815260200160002060003373ffffffffffffffffffffffffffffffffffffffff1673ffffffffffffffffffffffffffffffffffffffff168152602001908152602001600020541015610f45576040517f08c379a0000000000000000000000000000000000000000000000000000000008152600401610f3c90611a7c565b60405180910390fd5b8173ffffffffffffffffffffffffffffffffffffffff1663a9059cbb33836040518363ffffffff1660e01b8152600401610f809291906119f8565b602060405180830381600087803b158015610f9a57600080fd5b505af1158015610fae573d6000803e3d6000fd5b505050506040513d601f19601f82011682018060405250810190610fd29190611879565b610fdb57600080fd5b80600260008473ffffffffffffffffffffffffffffffffffffffff1673ffffffffffffffffffffffffffffffffffffffff16815260200190815260200160002060003373ffffffffffffffffffffffffffffffffffffffff1673ffffffffffffffffffffffffffffffffffffffff16815260200190815260200160002060008282546110679190611c96565b925050819055507fc2b4a290c20fb28939d29f102514fbffd2b73c059ffba8b78250c94161d5fcc6823383600260008073ffffffffffffffffffffffffffffffffffffffff1673ffffffffffffffffffffffffffffffffffffffff16815260200190815260200160002060003373ffffffffffffffffffffffffffffffffffffffff1673ffffffffffffffffffffffffffffffffffffffff1681526020019081526020016000205460405161111f94939291906119b3565b60405180910390a15050565b6000600260008473ffffffffffffffffffffffffffffffffffffffff1673ffffffffffffffffffffffffffffffffffffffff16815260200190815260200160002060008373ffffffffffffffffffffffffffffffffffffffff1673ffffffffffffffffffffffffffffffffffffffff16815260200190815260200160002054905092915050565b60056020528060005260406000206000915054906101000a900460ff1681565b6001600660008282546111e59190611bb5565b9250508190556006819055506040518060e0016040528060065481526020018473ffffffffffffffffffffffffffffffffffffffff1681526020018281526020018573ffffffffffffffffffffffffffffffffffffffff1681526020018381526020013373ffffffffffffffffffffffffffffffffffffffff168152602001428152506003600060065481526020019081526020016000206000820151816000015560208201518160010160006101000a81548173ffffffffffffffffffffffffffffffffffffffff021916908373ffffffffffffffffffffffffffffffffffffffff1602179055506040820151816002015560608201518160030160006101000a81548173ffffffffffffffffffffffffffffffffffffffff021916908373ffffffffffffffffffffffffffffffffffffffff1602179055506080820151816004015560a08201518160050160006101000a81548173ffffffffffffffffffffffffffffffffffffffff021916908373ffffffffffffffffffffffffffffffffffffffff16021790555060c082015181600601559050507f193256c677c9c19c699edc0bf46fa90e4a533f1c9bca955f58ff9c463ec8f94e6006548483878633426040516113ba9796959493929190611b35565b60405180910390a150505050565b60046020528060005260406000206000915054906101000a900460ff1681565b600060646001546113f99190611c0b565b826114049190611c3c565b905080846114129190611bb5565b600260008773ffffffffffffffffffffffffffffffffffffffff1673ffffffffffffffffffffffffffffffffffffffff16815260200190815260200160002060003373ffffffffffffffffffffffffffffffffffffffff1673ffffffffffffffffffffffffffffffffffffffff168152602001908152602001600020600082825461149d9190611c96565b9250508190555083600260008773ffffffffffffffffffffffffffffffffffffffff1673ffffffffffffffffffffffffffffffffffffffff16815260200190815260200160002060008873ffffffffffffffffffffffffffffffffffffffff1673ffffffffffffffffffffffffffffffffffffffff16815260200190815260200160002060008282546115309190611bb5565b9250508190555080600260008773ffffffffffffffffffffffffffffffffffffffff1673ffffffffffffffffffffffffffffffffffffffff16815260200190815260200160002060008060009054906101000a900473ffffffffffffffffffffffffffffffffffffffff1673ffffffffffffffffffffffffffffffffffffffff1673ffffffffffffffffffffffffffffffffffffffff16815260200190815260200160002060008282546115e49190611bb5565b9250508190555081600260008573ffffffffffffffffffffffffffffffffffffffff1673ffffffffffffffffffffffffffffffffffffffff16815260200190815260200160002060003373ffffffffffffffffffffffffffffffffffffffff1673ffffffffffffffffffffffffffffffffffffffff16815260200190815260200160002060008282546116779190611bb5565b9250508190555081600260008573ffffffffffffffffffffffffffffffffffffffff1673ffffffffffffffffffffffffffffffffffffffff16815260200190815260200160002060008873ffffffffffffffffffffffffffffffffffffffff1673ffffffffffffffffffffffffffffffffffffffff168152602001908152602001600020600082825461170a9190611c96565b925050819055507f35cc15ad16b95a9d45fadedd6ecbbd89858ec4bfedf144506f3f531d3eb6350987848488888b334260405161174e989796959493929190611ab7565b60405180910390a150505050505050565b60008135905061176e81611deb565b92915050565b60008151905061178381611e02565b92915050565b60008135905061179881611e19565b92915050565b600080604083850312156117b157600080fd5b60006117bf8582860161175f565b92505060206117d08582860161175f565b9150509250929050565b600080600080608085870312156117f057600080fd5b60006117fe8782880161175f565b945050602061180f8782880161175f565b935050604061182087828801611789565b925050606061183187828801611789565b91505092959194509250565b6000806040838503121561185057600080fd5b600061185e8582860161175f565b925050602061186f85828601611789565b9150509250929050565b60006020828403121561188b57600080fd5b600061189984828501611774565b91505092915050565b6000602082840312156118b457600080fd5b60006118c284828501611789565b91505092915050565b6118d481611cca565b82525050565b6118e381611cdc565b82525050565b60006118f6601483611ba4565b915061190182611d70565b602082019050919050565b6000611919601e83611ba4565b915061192482611d99565b602082019050919050565b600061193c601483611ba4565b915061194782611dc2565b602082019050919050565b61195b81611d08565b82525050565b600060208201905061197660008301846118cb565b92915050565b600060608201905061199160008301866118cb565b61199e60208301856118cb565b6119ab6040830184611952565b949350505050565b60006080820190506119c860008301876118cb565b6119d560208301866118cb565b6119e26040830185611952565b6119ef6060830184611952565b95945050505050565b6000604082019050611a0d60008301856118cb565b611a1a6020830184611952565b9392505050565b6000602082019050611a3660008301846118da565b92915050565b60006020820190508181036000830152611a55816118e9565b9050919050565b60006020820190508181036000830152611a758161190c565b9050919050565b60006020820190508181036000830152611a958161192f565b9050919050565b6000602082019050611ab16000830184611952565b92915050565b600061010082019050611acd600083018b611952565b611ada602083018a6118cb565b611ae76040830189611952565b611af460608301886118cb565b611b016080830187611952565b611b0e60a08301866118cb565b611b1b60c08301856118cb565b611b2860e0830184611952565b9998505050505050505050565b600060e082019050611b4a600083018a611952565b611b5760208301896118cb565b611b646040830188611952565b611b7160608301876118cb565b611b7e6080830186611952565b611b8b60a08301856118cb565b611b9860c0830184611952565b98975050505050505050565b600082825260208201905092915050565b6000611bc082611d08565b9150611bcb83611d08565b9250827fffffffffffffffffffffffffffffffffffffffffffffffffffffffffffffffff03821115611c0057611bff611d12565b5b828201905092915050565b6000611c1682611d08565b9150611c2183611d08565b925082611c3157611c30611d41565b5b828204905092915050565b6000611c4782611d08565b9150611c5283611d08565b9250817fffffffffffffffffffffffffffffffffffffffffffffffffffffffffffffffff0483118215151615611c8b57611c8a611d12565b5b828202905092915050565b6000611ca182611d08565b9150611cac83611d08565b925082821015611cbf57611cbe611d12565b5b828203905092915050565b6000611cd582611ce8565b9050919050565b60008115159050919050565b600073ffffffffffffffffffffffffffffffffffffffff82169050919050565b6000819050919050565b7f4e487b7100000000000000000000000000000000000000000000000000000000600052601160045260246000fd5b7f4e487b7100000000000000000000000000000000000000000000000000000000600052601260045260246000fd5b7f6f7264657220646f6573206e6f74206578697374000000000000000000000000600082015250565b7f596f7520646964206e6f7420696e69746961746520746865206f726465720000600082015250565b7f496e73756666696369656e742062616c616e6365000000000000000000000000600082015250565b611df481611cca565b8114611dff57600080fd5b50565b611e0b81611cdc565b8114611e1657600080fd5b50565b611e2281611d08565b8114611e2d57600080fd5b5056fea264697066735822122043914491cf0165511026b211738ea77868a6cc26abfb0b54d637292a0bf7d12464736f6c63430008040033",
  "devdoc": {
    "kind": "dev",
    "methods": {},
    "version": 1
  },
  "userdoc": {
    "kind": "user",
    "methods": {},
    "version": 1
  },
  "storageLayout": {
    "storage": [
      {
        "astId": 715,
        "contract": "contracts/Exchange.sol:Exchange",
        "label": "feesAccount",
        "offset": 0,
        "slot": "0",
        "type": "t_address"
      },
      {
        "astId": 717,
        "contract": "contracts/Exchange.sol:Exchange",
        "label": "feePercent",
        "offset": 0,
        "slot": "1",
        "type": "t_uint256"
      },
      {
        "astId": 729,
        "contract": "contracts/Exchange.sol:Exchange",
        "label": "tokens",
        "offset": 0,
        "slot": "2",
        "type": "t_mapping(t_address,t_mapping(t_address,t_uint256))"
      },
      {
        "astId": 734,
        "contract": "contracts/Exchange.sol:Exchange",
        "label": "order",
        "offset": 0,
        "slot": "3",
        "type": "t_mapping(t_uint256,t_struct(_Order)759_storage)"
      },
      {
        "astId": 738,
        "contract": "contracts/Exchange.sol:Exchange",
        "label": "orderCancelled",
        "offset": 0,
        "slot": "4",
        "type": "t_mapping(t_uint256,t_bool)"
      },
      {
        "astId": 742,
        "contract": "contracts/Exchange.sol:Exchange",
        "label": "orderfilled",
        "offset": 0,
        "slot": "5",
        "type": "t_mapping(t_uint256,t_bool)"
      },
      {
        "astId": 744,
        "contract": "contracts/Exchange.sol:Exchange",
        "label": "orderCount",
        "offset": 0,
        "slot": "6",
        "type": "t_uint256"
      }
    ],
    "types": {
      "t_address": {
        "encoding": "inplace",
        "label": "address",
        "numberOfBytes": "20"
      },
      "t_bool": {
        "encoding": "inplace",
        "label": "bool",
        "numberOfBytes": "1"
      },
      "t_mapping(t_address,t_mapping(t_address,t_uint256))": {
        "encoding": "mapping",
        "key": "t_address",
        "label": "mapping(address => mapping(address => uint256))",
        "numberOfBytes": "32",
        "value": "t_mapping(t_address,t_uint256)"
      },
      "t_mapping(t_address,t_uint256)": {
        "encoding": "mapping",
        "key": "t_address",
        "label": "mapping(address => uint256)",
        "numberOfBytes": "32",
        "value": "t_uint256"
      },
      "t_mapping(t_uint256,t_bool)": {
        "encoding": "mapping",
        "key": "t_uint256",
        "label": "mapping(uint256 => bool)",
        "numberOfBytes": "32",
        "value": "t_bool"
      },
      "t_mapping(t_uint256,t_struct(_Order)759_storage)": {
        "encoding": "mapping",
        "key": "t_uint256",
        "label": "mapping(uint256 => struct Exchange._Order)",
        "numberOfBytes": "32",
        "value": "t_struct(_Order)759_storage"
      },
      "t_struct(_Order)759_storage": {
        "encoding": "inplace",
        "label": "struct Exchange._Order",
        "members": [
          {
            "astId": 746,
            "contract": "contracts/Exchange.sol:Exchange",
            "label": "id",
            "offset": 0,
            "slot": "0",
            "type": "t_uint256"
          },
          {
            "astId": 748,
            "contract": "contracts/Exchange.sol:Exchange",
            "label": "tokenGive",
            "offset": 0,
            "slot": "1",
            "type": "t_address"
          },
          {
            "astId": 750,
            "contract": "contracts/Exchange.sol:Exchange",
            "label": "amountGive",
            "offset": 0,
            "slot": "2",
            "type": "t_uint256"
          },
          {
            "astId": 752,
            "contract": "contracts/Exchange.sol:Exchange",
            "label": "tokenTake",
            "offset": 0,
            "slot": "3",
            "type": "t_address"
          },
          {
            "astId": 754,
            "contract": "contracts/Exchange.sol:Exchange",
            "label": "amountTake",
            "offset": 0,
            "slot": "4",
            "type": "t_uint256"
          },
          {
            "astId": 756,
            "contract": "contracts/Exchange.sol:Exchange",
            "label": "user",
            "offset": 0,
            "slot": "5",
            "type": "t_address"
          },
          {
            "astId": 758,
            "contract": "contracts/Exchange.sol:Exchange",
            "label": "timestamps",
            "offset": 0,
            "slot": "6",
            "type": "t_uint256"
          }
        ],
        "numberOfBytes": "224"
      },
      "t_uint256": {
        "encoding": "inplace",
        "label": "uint256",
        "numberOfBytes": "32"
      }
    }
  }
}